:1000000037C000006BC10000F4C000004FC000000A
:100010004DC000004BC0000049C000000C945A11B4
:1000200045C0000043C0000041C000003FC00000C8
:100030003DC000003BC0000039C0000037C00000D8
:1000400035C0000033C0000031C000002FC00000E8
:100050002DC000002BC0000029C0000027C00000F8
:1000600025C0000023C0000021C000001FC0000008
:1000700000EC05BF11241FBECFEFD4E0DEBFCDBF23
:1000800012E0A0E0B1E0E2E6F6E302C005900D92D6
:10009000A43DB107D9F710E6A0E0B5E001C01D927C
:1000A000AD32B107E1F7A1D20C942F1BA9CF83E0A9
:1000B00016D086E814D00CD086E011D009D080E8A4
:1000C0000ED081E80CD082E80AD085E808D03AC08A
:1000D000002711271395F1F70395E1F70895BF93D2
:1000E000AF9303D0AF91BF910895B0ECA82FAF7735
:1000F00087FB882780F98C9308952F93AF93BF9344
:100100002FB72F93F894282F87E0EFDF98E080E156
:100110008A95F1F7279510F487E803C087E000007F
:100120000000E3DF9A9599F782E18A95F1F787E875
:10013000DCDF84E68A95F1F72F912FBFBF91AF9155
:100140002F9108958DE0D9DF8AE0D7CF8F938695E0
:1001500086958695869502D08F918F708A3018F497
:1001600090E3890FCACF97E3FCCF9498909820FD35
:10017000949A21FD909A0895F8DF919A21E027BB87
:1001800032982FEF28BB3A9A0CD022FB30F92FEF90
:1001900027BB329A0895E9DF919838BB3A9830FD31
:1001A0003A9A88944BB780E88399FECF8ABF8BBF79
:1001B000F8F0F0F0E8F0E0F0D8F0D0F0C8F0C0F0DF
:1001C000B8F0B0F0A8F0A0F098F090F088F080F0CF
:1001D00078F070F068F060F058F050F048F040F0BF
:1001E00038F030F028F020F018F010F008F000F0AF
:1001F000089500C0389800C000C0000036B325B193
:100200000000389A4BBF0894189521E03327C3DFCC
:1002100021E0B2DF32FBE6F788270895DF93CF9322
:10022000EC0181E05CDF70E020E030E4B4DF21E04D
:1002300034E8B1DFA881B9815C81269620E09CDF9B
:1002400036FBE6F73991603029F473957530D1F3B8
:100250007630C1F35A95D9F4A030B105C1F423E04A
:100260009ADF21E03FE697DF20E030E094DF20E0F6
:1002700083DF36FBE6F720E160FF20E3F22E32E871
:1002800020E089DF81E82BDFCF91DF91089522E024
:1002900082DF503099F6ED016260CCCF8FE62DDF22
:1002A00080E0C4D0A8C08EE628DFA5C085E625DFA3
:1002B00087D0FF249DD01BC0FF249AD0B091CA578D
:1002C000A091C957A115B10530F421E02C931092EB
:1002D000C9571092CA5781E802DF8DC08F932F93C0
:1002E0003F932FB72F93BF93AF931BBE789421E01A
:1002F00043DF30FBCEF037FB4EF131FB5EF036FBD7
:100300006EF235FB86F234FB8EF233FB96F232FB53
:100310009EF271C055D02F2D207F2F60F22E6BC022
:1003200020E032EA38DF67C020E42F15C9F381E00E
:10033000D6DEA091D202B091D30222E01DDF3D9320
:10034000A093D202B093D302F39455C0A091D202ED
:10035000B091D30222E010DF3D9322E00DDF3D9308
:10036000A093D202B093D3022BE5B21720F069F02C
:100370002BECB21750F42F2D2F702330E1F1F394B2
:100380002130C9F1223021F00FC08FE4B6DE0CC05D
:100390002091CC575DD078F139F030912B602091CD
:1003A000CB57321709F427C020E032EAF4DE20E40C
:1003B000F22EABECB7E5A093D202B093D3021BC0F0
:1003C00021E034E8E8DE20E030E0E5DE21E0D4DEC4
:1003D00037FB5EF4A091D202B091D30222E0CCDED2
:1003E0003D93A093D202B093D30221E037EAD3CE5B
:1003F00021E037E6D0CEAF91BF9180E48BBF2F9143
:100400002FBF3F912F918F91189583E868DE31ECD3
:1004100020E0C1DE3EE123E0BEDE332721E0BBDE8B
:100420003EE123E0B8DE30EC20E0B5DEF82EABECA8
:10043000B7E5A093D202B093D30230E820E0ABDE60
:1004400037E621E0A8DE32E820E0A5DE81E847CEED
:100450002F3FE1F02030B9F030E0220F331F220FA0
:10046000331FCF93DF93C9ECD3E5C20FD31F28818D
:100470003981232B3A81232B3B81232BDF91CF9191
:1004800029F48894089588949894089508949894E9
:1004900008958F2D0895F92FE82F262F6E7F882736
:1004A0009927860B970B41F0419151914093008021
:1004B000509301800296C0F720FF08954081409339
:1004C00000800895F92FE82F262F6E7F882799271F
:1004D000860B970B41F04091008050910180419331
:1004E00051930296C0F720FF089540910080408309
:1004F000089580930A8090930B8080910C80909156
:100500000D80089580930A8090930B8060930C80F7
:1005100070930D800895F92FE82F88E591E061919F
:100520007191F0DF619171910296ECDF61917191AF
:100530000296E8CFFB01DC0104C08D910190801987
:1005400021F441505040C8F7881B990B0895FB01D6
:10055000DC0102C001900D9241505040D8F708953F
:10056000DC0101C06D9341505040E0F70895FB015C
:10057000DC0101900D920020E1F70895FB01DC0100
:100580004150504030F08D910190801919F40020B5
:10059000B9F7881B990B0895FB01DC0141505040CD
:1005A00048F001900D920020C9F701C01D92415002
:1005B0005040E0F70895E1E6F0E080E880831082A3
:1005C0009FEF97BB85E086B983EF81BB92BB81E04B
:1005D00087B984E081BF99E193BF82E88FBD9EBD5A
:1005E00080E486BF88EC85BF0895DF93CF93CDB7B5
:1005F000DEB728970FB6F894DEBF0FBECDBF0E94BE
:100600004612A2EBBCE4EFEBF3E586E001900D921D
:100610008150E1F7D0DF4BDD0E9449110E94D811D3
:10062000F4DE80E48BBF8E010F5F1F4FC80164EFC3
:1006300071E00E949D1145E0C42ED12CCC0EDD1E30
:10064000C60160E177E20E949D1156D21DD39091C0
:10065000B55380E04091B65350E0482B592B309170
:10066000B35320E08091B45390E0822B932B90936E
:10067000A34D8093A44D5093A54D4093A64D9091CA
:10068000BD5380E04091BE5350E0482B592B309130
:10069000BB5320E08091BC5390E0822B932B90932E
:1006A0009B4D80939C4D50939D4D40939E4D9091BA
:1006B000B95380E04091BA5350E0482B592B309108
:1006C000B75320E08091B85390E0822B932B909306
:1006D0009F4D8093A04D5093A14D4093A24D80918A
:1006E000B15380932B6010922C600E9443190E949A
:1006F00090130E9426140E94AD14480139EC232E59
:100700003CE4332E20E3422E2DE4522E97E8A92E0E
:1007100093E5B92E81E1682E712C6A0C7B1CEC2CC0
:10072000CD2C0E9486150E94D1130E94351466D1EB
:100730009093B14C8093B04C892B59F10091B34DFB
:100740001091B44D80E098E009D30817190759F4C7
:1007500081E01DD38091B04C9091B14C892B09F36D
:100760000E94860E12C00091B34D1091B44D86E0E8
:1007700098E0F4D208171907A1F60E94971080910B
:10078000B04C9091B14C892B61F280E090E080D127
:10079000C8CFC4010E948711892B09F4C2CFC401BC
:1007A0000E947D113092C84C2092C74C82E0EFD25B
:1007B0008091B04C9091B14C892B29F00E94860E0B
:1007C00080E090E065D15092C84C4092C74C82E0E6
:1007D000DED28091B04C9091B14C892B29F00E94CF
:1007E000860E80E090E054D1B092C04CA092BF4CF5
:1007F00085E0CDD28091B04C9091B14C892B29F0FD
:100800000E94860E80E090E043D17092C04C6092CE
:10081000BF4C85E0BCD28091B04C9091B14C892BFB
:1008200029F00E94860E80E090E032D18E2D9C2D22
:100830000E948711892B09F474CF8E2D9C2D0E9464
:100840007D110E94590E6DCFCF93DF93EC0102C052
:10085000219653DC88818823D9F7DF91CF910895C1
:1008600080E091E0F1CF1F93182F892F6FDC80E299
:1008700044DC812F6BDC1F91089580930A80909354
:100880000B8060930C8070930D80089584E291E05A
:1008900030DE84309105C1F090FD19C094FD08C090
:1008A00095FD06C096FD04C0809101808091008076
:1008B000809101808091008082E091E01ADEBC018D
:1008C000606482E091E0D9DF40E050E00EC08091AA
:1008D0000180809100808091018090910080382F6C
:1008E00020E0492F50E0422B532BCA010895CF93AB
:1008F000DF93C0E0D0E088E291E0FBDD089729F4C7
:10090000219685E7C033D807B1F7DF91CF910895DD
:10091000282F80910005882349F080EC8093048083
:1009200081E0809305801092000505C080EC8093E3
:10093000048010920580209306809093078088E3BE
:1009400091E0D7DD87FD05C090FD03C081E0809375
:1009500000050895CF92DF920F931F93CF93DF93FB
:1009600080E090E0C6DD8C0182E090E0C2DD6C01A9
:1009700077DF84E5C2DBC80176DF82E5BEDBC60136
:1009800072DF6EDF84E191E060E470E076DFC0E06A
:10099000D0E08DE72AD02196C436D105D1F7C0E04A
:1009A000D0E086E391E0A5DD87FD06C021968BE0CF
:1009B000C83BD807B1F712C08FEB93E5ACDD84E0FC
:1009C00091E060E07FE059DF88E191E060E070E471
:1009D00054DF82E191E060EC70E04FDFDF91CF9176
:1009E0001F910F91DF90CF90089522E030E0E22F29
:1009F000F32F3197F1F78A95D1F70895CF93DF93CD
:100A000045DFEC01009759F085E0CD3DD80718F09F
:100A1000C0E0D0E004C087EA9DE4BE0153DDCE0112
:100A2000DF91CF9108950F931F936091B04C709117
:100A3000B14C6733710530F487EA9DE40E94F811E8
:100A40008C0122C087EA9DE466E370E00E94F81101
:100A50008C016091B04C7091B14C665370408091A4
:100A6000C54C9091C64C0E94F811DC01F801CF01F1
:100A70000190F081E02D3097D1F7FC01B183A08384
:100A800013969C938E931297C8011F910F9108950E
:100A9000EF920F931F93CF93DF938C01009711F088
:100AA000EE2404C0C0DF8C01EE24E394F80120E0C2
:100AB00030E006C08481280F311D0190F081E02DC7
:100AC0003097C1F7C90124DFE80108C06C81CE016D
:100AD000069670E0E0DC0990D881C02D2097B1F730
:100AE00006DFEE2019F0C8010E94E811DF91CF91D6
:100AF0001F910F91EF9008952DCF0895FC01538120
:100B0000560F5093BD4C272F33274281420F4093FD
:100B1000BC4CA181A093BB4CE081E093BA4C842FE4
:100B200090E08217930748F48A2F8F5F8093BB4C25
:100B3000882319F4EF5FE093BA4C852F90E0707032
:100B40008617970790F4842F8F5F8093BC4C88237F
:100B500061F48091BB4C8F5F8093BB4C882329F458
:100B60008091BA4C8F5F8093BA4C0895E5EBFDE419
:100B700040E050E0308120E08181B901680F711DB3
:100B8000460F571F4617570710F44F5F5F4F3296B7
:100B90007DE4E83CF70770F38DE4E83CF80751F496
:100BA000908180E0480F591F4817590718F44F5F8C
:100BB0005F4F06C04115510519F42FEF3FEF02C0FA
:100BC000342F252FC90108959091B84D692F70E0F9
:100BD000645170403091B74D20E0620F731FAB013C
:100BE000480F511DE1ECFDE4308120E08181D90105
:100BF000A80FB11D4A0F5B1F4A175B0710F44F5F28
:100C00005F4F3296BDE4E83CFB0770F38DE4E83CAF
:100C1000F80749F4908180E0480F591F4817590799
:100C200010F44F5F5F4F6853724BE9ECFDE40EC068
:100C3000308120E08181D901A80FB11D4A0F5B1FCF
:100C40004A175B0710F44F5F5F4F3296E617F707BE
:100C500078F3E617F70751F4908180E0480F591FA9
:100C60004817590718F44F5F5F4F06C041155105EB
:100C700019F42FEF3FEF02C0342F252FC90108953B
:100C800086E0A2CF81E1A0CF80E009C0E82FF0E0AC
:100C9000EE0FFF1FE956F24B118210828F5F8230F8
:100CA000A8F320E047E650E00DC0822F90E0849F3B
:100CB000F001859FF00D949FF00D1124E753F34B45
:100CC000118E2F5F223088F320E00FC0822F90E03A
:100CD000FC0134E0EE0FFF1F3A95E1F7E80FF91F32
:100CE000E957FC4A158214822F5F223078F3209353
:100CF00009050895AC011092090520E012C0E22F09
:100D0000F0E0322F3F5FEE0FFF1FE956F24B80817C
:100D10009181892B29F420930905518340830895FB
:100D2000232F223060F3209309050895BC018091A0
:100D3000C74C9091C84C0896E1DEE091C74CF09109
:100D4000C84C8091BA4C80878091BB4C8187809140
:100D5000BC4C82878091BD4C83870895282F892FB2
:100D6000922F0895AC01FB01161617067CF46093D0
:100D70008553F09386532091B84C3091B94C82172B
:100D8000930721F0C901BA01AF01E1CB08950F9398
:100D90001F93CF93DF93C091C74CD091C84C843040
:100DA00009F430C22DED3DE43093C64C2093C54C80
:100DB0003093B94C2093B84C833059F4898D8F709F
:100DC000833009F007C788899989892B09F002C700
:100DD00083C0823009F084C0809106058F5F8093C4
:100DE0000605882399F4809105058F5F809305059A
:100DF000882361F4809104058F5F80930405882324
:100E000029F4809103058F5F809303051092B14C04
:100E10001092B04C1092865310928553298D273032
:100E200011F0253041F48A8D8F5F8A8F883709F061
:100E3000D1C6198ECFC6222309F4CCC688899989D8
:100E4000892B09F445C08A8D81508A8F8F5F09F004
:100E5000C1C63B8D383029F02150223048F435305E
:100E600039F4198E80E88093BE4C0E9469136EC5D8
:100E7000353010F080E307C083E090E002C0880FB7
:100E8000991F3A95E2F78A8F8B8D8F5F8B8F898DB3
:100E900090E08F7090708430910509F4ECC4853037
:100EA000910544F48130910509F4C8C3039709F012
:100EB00091C608C08630910509F4DDC4089709F091
:100EC00089C6D9C484E08093BE4C0E94691373C55F
:100ED0002F70233009F07EC688E08093BE4C2BC56E
:100EE000853019F5E091BF4CF091C04C848195811B
:100EF000892B09F46FC61092C84C1092C74CC901D7
:100F00000C979093C64C8093C54C9093B94C8093AA
:100F1000B84C10928653109285531092B14C109297
:100F2000B04C88E08093BE4C6BC1890108521040E0
:100F30008091B54D853409F04DC69091B74D80E054
:100F40002091B84DAC01420F511D8091B04C909151
:100F5000B14C8417950708F43DC65093B14C4093AB
:100F6000B04C8091BB4D90E08F739070892B09F04D
:100F700031C68091BC4D882309F02CC62091A34D29
:100F80003091A44D80911C0190911D0128173907C3
:100F900031F48091A54D9091A64D892BE1F180917E
:100FA000C54D9091C64D8217930759F42091C74DB6
:100FB0003091C84D8091A54D9091A64D28173907C5
:100FC00051F19091A74D8091B24C981709F002C64B
:100FD0009091A84D8091B34C981709F0FBC5909162
:100FE000A94D8091B44C981709F0F4C59091AA4D81
:100FF0008091B54C981709F0EDC59091AB4D80915B
:10100000B64C981709F0E6C59091AC4D8091B74C5D
:10101000981709F0DFC5AADD8F5F9F4F09F0DAC589
:101020008091BE4D863009F478C18131D1F1813093
:1010300009F0D0C58091C94D883009F0CBC5109218
:10104000C94D8091CB4D9091CC4DEFEF873F9E07DE
:1010500010F0099601C008969093CC4D8093CB4D2B
:101060008091C14D9091C24D9093C64D8093C54DD6
:101070008091C34D9091C44D9093C84D8093C74DBE
:101080008091A34D9091A44D9093C24D8093C14DFA
:101090008091A54D9091A64D9093C44D8093C34DE2
:1010A0009DC58091B04C9091B14C4C979093B14CB0
:1010B0008093B04C81ED9DE49093C64C8093C54CD9
:1010C0008091CF4D9091D04D892B29F0DBDD8F5F42
:1010D0009F4F09F07FC587E893E59093C04C8093BC
:1010E000BF4C6FC0248135812115310509F464C0DE
:1010F0008091CB4D9091CC4D8217930709F05CC045
:10110000268137812115310541F08091C94D90919B
:10111000CA4D8217930709F04FC020813181809119
:101120001C0190911D012817390729F482819381B0
:10113000892B09F450C0809120019091210128173A
:10114000390731F4828193818F5F9F4F09F443C047
:101150008091C14D9091C24D8217930749F420911F
:10116000C34D3091C44D828193812817390799F17D
:101170009091A74D8091B24C9817F1F49091A84DA1
:101180008091B34C9817C1F49091A94D8091B44CC3
:10119000981791F49091AA4D8091B54C981761F4ED
:1011A0009091AB4D8091B64C981731F49091AC4D25
:1011B0008091B74C981779F07196F093C04CE093FA
:1011C000BF4CE091BF4CF091C04C53E5E93AF507B4
:1011D00008F488CFFFC41092C84C1092C74C82E02C
:1011E0008093BE4C81ED9DE49093C64C8093C54C9A
:1011F0009093B94C8093B84C1092865310928553BB
:101200000E94691320918553309186532115310531
:1012100009F4E0C4C9014C969093B14C8093B04C52
:101220009093B74D8093B84DE091BF4CF091C04C76
:1012300080858093BD4D81E18093BE4DC9010896A4
:101240009093CD4D8093CE4D1092D04D1092CF4DB6
:1012500086819781009721F48091C94D9091CA4D64
:101260009093CC4D8093CB4DE091BF4CF091C04C0E
:10127000848195819093CA4D8093C94D208131819D
:1012800080911C0190911D012817390789F48281F2
:101290009381892B69F48091C14D9091C24D9093B7
:1012A000C64D8093C54D8091C34D9091C44D0AC0E9
:1012B0003093C64D2093C54DE091BF4CF091C04C8A
:1012C000828193819093C84D8093C74D8091A34DA7
:1012D0009091A44D9093C24D8093C14D8091A54DA6
:1012E0009091A64D9093C44D8093C34D8DED9DE498
:1012F0009093C64C8093C54CC5DC80959095909397
:10130000D04D8093CF4D892B09F041C48FEF9FEFD3
:101310009093D04D8093CF4D3AC4B2DC8F5F9F4FF6
:1013200009F058C4C9ECDCE4898D882329F12091A7
:10133000CB4D3091CC4D8C819D8128173907E1F43C
:101340002091C94D3091CA4D8E819F812817390750
:1013500099F42091C14D3091C24D8881998128170F
:10136000390751F42091C34D3091C44D8A819B813E
:101370002817390709F479C1C959DF4FFDE4C03393
:10138000DF0791F288F28091D64D8F73823011F58C
:101390008091CB4D9091CC4D90930C0580930B0593
:1013A0001092090513C0E42FF0E0EE0FFF1FE9567D
:1013B000F24B20910B0530910C058081918128170B
:1013C000390709F471C04F5F409309054091090541
:1013D000423048F38091D64D82FDFCC384E1F80190
:1013E00081A388E290E09093B14C8093B04C80E56B
:1013F00080A39091D04D8091D44D838F3091CF4D6B
:101400008091D34D828F368F4091CE4D8091D24DB9
:10141000818F458F2091CD4D209309058091D14D2D
:10142000808F248F9F5F978F992361F4832F8F5F25
:10143000868F882339F4842F8F5F858F882311F45A
:101440002F5F248F2091C94D3091CA4D30930C05E8
:1014500020930B058091CB4D9091CC4DF801958B4D
:10146000848B378B268B8091C14D9091C24D909388
:10147000C64D8093C54D8091C34D9091C44D9093BE
:10148000C84D8093C74D8091A34D9091A44D9093EA
:10149000C24D8093C14D8091A54D9091A64D9093E2
:1014A000C44D8093C34D59C310920905C0E0D0E0EC
:1014B00047E650E037E625C0822F90E0849FF00198
:1014C000859FF00D949FF00D1124E753F34B818D10
:1014D000882339F487E6289FE0011124C753D34BB2
:1014E00014C0873059F4209721F0928D8A8D891786
:1014F00028F4239FE0011124C753D34B2F5F20937F
:101500000905209109052230B8F2209709F462C339
:10151000D093C84CC093C74C83E08A8F888F1E8AB3
:1015200084E08F8B1B8E8091CB4D9091CC4D9D8311
:101530008C838091C94D9091CA4D9F838E838091F9
:10154000C14D9091C24D998388838091C34D9091F4
:10155000C44D9B838A8381E0898F809103058C87AA
:10156000809104058D87809105058E878091060501
:101570008F8781E090E0998B888B8091D04D8B870D
:101580008091CF4D8A878091CE4D89878091CD4DB6
:10159000888781E090E0CADB8091D54D90E0807F24
:1015A0009070813591050CF449C01092090534C042
:1015B000F901E955F24B86A980930A058823F1F1D8
:1015C000813021F44F5F4093090526C08230C1F479
:1015D00087A98430A9F430AD20E081AD90E0822B62
:1015E000932B90930C0580930B05F5E0873A9F07AA
:1015F00010F086EA95E09B8B8A8B9D8B8C8B1EC0AE
:1016000090910905E92FF0E0E955F24B87A988236D
:10161000A9F0890F8093090540910905242F30E036
:101620008091D54D82958F7090E00597880F991F16
:10163000880F991F281739070CF4BACF82E18093DD
:10164000D64D82E08093DD4D84E08093DE4D85E0D1
:101650008093DF4D86EA8093E04D8CE290E090939A
:10166000B14C8093B04C80E625C2D093C84CC09357
:10167000C74C1092BE4C8091D64D482F50E082FF4F
:1016800003C0198E80E2C4C18091D54D82958F70C0
:10169000880F880F809309052091B04C3091B14C90
:1016A00024513040281B31093093B14C2093B04C69
:1016B000898D8F70823029F44F73507042315105FB
:1016C00009F1232B39F48091D64D90E0837090700E
:1016D000892BC1F09091CD4D8885981709F0E0C114
:1016E0009091CE4D8985981709F0DAC19091CF4D30
:1016F0008A85981709F0D4C19091D04D8B859817A1
:1017000009F0CEC18091D64D84FF50C06889798997
:101710006115710509F44AC0CE010C96EFD92091EC
:10172000D14D8091BA4C281709F040C09091D24D0C
:101730008091BB4C9817D1F59091D34D8091BC4CC2
:101740009817A1F59091D44D8091BD4C981771F5E3
:101750002C878091BB4C8D878091BC4C8E8780916B
:10176000BD4C8F878B8D8823D1F42E89988D8A8DDF
:10177000981B822F869586958695981B392F320F58
:101780003E8B8F89282F26952695821B97FD919554
:10179000890F8F8B369536953695830F888F81E02C
:1017A0008093BE4C888D8A8F198A188A898D282F3C
:1017B00030E0C9018F7090708530910509F44BC1FC
:1017C000863091055CF48330910569F18430910590
:1017D0000CF022C1019709F0FDC10CC087309105C2
:1017E00009F45EC1873091050CF452C1089709F0E5
:1017F000F1C108C18091BE4C80FFECC183E0898FAC
:1018000080E48093BE4C198A188A2091B04C3091A4
:10181000B14C2115310509F48AC082E48093BE4C95
:10182000C90184DA84C08091D64D80FF28C024FD90
:1018300026C088899989892B09F0CCC18091B04C48
:101840009091B14C019672DA2091BE4C822F80614A
:101850008093BE4C8091B04C9091B14C892B19F083
:1018600022612093BE4C35D781E090E0998B888B24
:1018700088E0898F1B8E81E18093D64D14C185FF4E
:1018800021C06091DB4D362F20E04091DC4D50E0CF
:10189000242B352B8091C54C9091C64C820F931F01
:1018A0009093C64C8093C54C962F80E0842B952B4B
:1018B0002091B04C3091B14C281B390B3093B14C76
:1018C0002093B04C2091B04C3091B14C2115310592
:1018D00051F0898D84FD07C08091BE4C8260809359
:1018E000BE4CC90123DA9091D74D80E02091D84DAC
:1018F000820F911D90930C0580930B052C893D89D7
:101900002817390710F0892B21F430930C05209308
:101910000B0580910B0590910C059B8B8A8B809118
:10192000BE4C90E083709070892B09F453C11092E3
:10193000865310928553CDD68091BE4C282F85FFBB
:1019400007C01092865310928553198E84E194CF6C
:1019500084FF0AC0109286531092855381E090E074
:10196000998B888B84E085CF8091855390918653A5
:10197000892B01F120FF02C0198A188A8889998968
:101980000097A1F42A893B898091855390918653D1
:101990002817390720F4309386532093855380917C
:1019A000855390918653998B888B04C0909386536E
:1019B000809385531B8E8091B84C9091B94C909335
:1019C000C64C8093C54C8091855390918653892B4A
:1019D00059F088899989009739F088969093B14C8D
:1019E0008093B04C88E10BC08091BE4C81FFF2C067
:1019F00088E290E09093B14C8093B04C80E180936A
:101A0000D64D57C08091BE4C80FFE4C0198E80E156
:101A10008093BE4C5ED6DEC08091B04C9091B14CAC
:101A2000009709F083D98091D64D9091BE4C80FFEC
:101A30000BC090FF06C087E0898F1A8E198A188A1A
:101A400018C086E0898F15C090FF1BC085E0898F84
:101A5000198A188ABFC08091B04C9091B14C009700
:101A600009F064D98091D64D80FF0BC087E0898F43
:101A70001A8E81E090E05AD980E18093BE4C29D63D
:101A80000FC08091B04C9091B14C892B49F4A2C009
:101A90008091BE4C80FF9EC087E0898F1A8E9AC0CD
:101AA00080E1F80181A388E290E09093B14C8093AB
:101AB000B04C80E58093D54D88858093D14D898544
:101AC0008093D24D8A858093D34D8B858093D44D5E
:101AD0008C858093CD4D8D858093CE4D8E85809362
:101AE000CF4D8F858093D04D86E08093BE4D8C8105
:101AF0009D819093CA4D8093C94D8E819F81909313
:101B0000CC4D8093CB4D8091A34D9091A44D90935B
:101B1000C24D8093C14D8091A54D9091A64D90935B
:101B2000C44D8093C34D888199819093C64D809315
:101B3000C54D8A819B819093C84D8093C74D898DF7
:101B400084FF05C01092D84D1092D74D06C085E095
:101B50008093D74D86EA8093D84D80E48093BD4D25
:101B60008091B14C8093B74D8091B04C8093B84D2B
:101B70001092DC4D1092DB4D1092DA4D1092D94D3F
:101B80007FD8809590959093DA4D8093D94D85E4D8
:101B90008093B54D1092B64D1092BC4D1092BB4D36
:101BA0008091010590910205019690930205809322
:101BB00001059093B94D8093BA4D1092C04D10928B
:101BC000BF4D0E94B605809590959093C04D80932F
:101BD000BF4D04C01092B14C1092B04C1092BE4C4C
:101BE000DF91CF911F910F910895DC01409107057E
:101BF000509108054F5F5F4F8DE74030580710F058
:101C000040E050E1342F252F80918B5390918C53DD
:101C10008217930779F380919C5390919D5382177B
:101C2000930741F340930705509308051092090567
:101C300020E01EC0322F3F5F822F90E0FC01E29532
:101C4000F295F07FFE27E07FFE27E80FF91FE957A6
:101C5000FC4A84819581892B51F42093090581E107
:101C6000289FF0011124E957FC4A49F420C0232F92
:101C7000223000F320930905E0E0F0E018C054831F
:101C8000458377836683109729F41082118212822C
:101C900013820BC08D919C91119791838083129632
:101CA0008D919C9113979383828380E48087CF01E9
:101CB0000895809171058F5F8093710510926F0573
:101CC0004BE01FC0249FF0011124ED5EFA4F82818A
:101CD000938120813181822B932B892B69F0809114
:101CE000710590E02285821B91098837910524F0C7
:101CF000108211821282138280916F058F5F809310
:101D00006F0520916F052830E8F20895CF93DF9397
:101D10008091B04C9091B14C0E969093B14C8093C1
:101D2000B04C4091C54D5091C64D80912401909189
:101D300025014817590781F48091C74D9091C84DEE
:101D40008F5F9F4F49F487EA9DE46FEF70E046E0B4
:101D500050E00E94B002EFC08091A34D9091A44D3D
:101D60008427952720919F4D3091A04D8223932366
:101D7000892B91F46091C74D7091C84D8091A54D0C
:101D80009091A64D862797272091A14D3091A24D85
:101D900082239323892B89F080919B4D90919C4DB8
:101DA00090936C0580936B0580919D4D90919E4D15
:101DB00090936E0580936D0508C050936C05409319
:101DC0006B0570936E0560936D0510926F056091C1
:101DD0006B0570916C0540916D0550916E0520E08A
:101DE0003BE013C0239FF0011124ED5EFA4F808188
:101DF00091816817790741F48281938148175907C7
:101E000019F420936F058FC02F5F283058F320936B
:101E10006F05283009F087C00E941305EC018091FE
:101E20000D0590910E05009709F0D2D2D0930E05C2
:101E3000C0930D0580916B0590916C0590931005F2
:101E400080930F0580916D0590916E05909312051A
:101E50008093110587EA9DE46FEF70E046E050E063
:101E60000E94B002E7ECFDE486E0DF011D928A9556
:101E7000E9F77A97A2EBBCE486E00D9001928150DD
:101E8000E1F7ADEBBDE4E2EBFCE486E001900D92FE
:101E90008150E1F780916B0590916C059093CE4D48
:101EA0008093CD4D80916D0590916E059093D04DAE
:101EB0008093CF4D8091A34D9091A44D9093C44DAC
:101EC0008093C34D8091A54D9091A64D9093C64DA2
:101ED0008093C54D80E091E09093BC4D8093BB4DC5
:101EE0009093B64D8093B54D88E090E09093B84DB7
:101EF0008093B74D86E08093B94D84E08093BA4DCE
:101F000088E096E09093B44D8093B34D8DED9DE4C1
:101F10009093C64C8093C54C8AE290E09093B14C6C
:101F20008093B04C17C0A7EABDE4349686E00190D8
:101F30000D928150E1F7ADEABDE4E2EBFCE486E00E
:101F400001900D928150E1F788E090E09093B44DBC
:101F50008093B34DDF91CF910895CF92DF92EF92AE
:101F60000F931F93CF93DF938C01E62E10926F0592
:101F7000A0E0BBE02CC0AB9FF0011124ED5EFA4F56
:101F8000408151814115510509F12281338121158B
:101F90003105E1F0E8018881998184179507B1F452
:101FA0008A819B818217930789F4A0936F05EF01C3
:101FB00024968E2D972F9C01D90186E00D900992D1
:101FC0008150E1F7809171058287A9C0AF5FA83089
:101FD00090F210926F0520E03BE011C0239FF001CA
:101FE0001124ED5EFA4F80819181892B39F4828131
:101FF0009381892B19F420936F053CC02F5F283003
:1020000068F320936F052830A9F51092720510929D
:10201000700560917105C62FD0E0A0E0B0E040E00F
:102020008BE0C82ED12C18C0842F90E08C9DF0013D
:102030008D9DF00D9C9DF00D1124ED5EFA4F5285A3
:102040009E01251B31098B2F90E0821793071CF40A
:10205000B62FB51BA42F4F5F483030F3A093700507
:10206000B0937205A0936F058BE0A89FF001112437
:10207000ED5EFA4FE80188819981AA81BB81EF0169
:1020800089939993A993B993AE012E2D372FC90146
:10209000DC0186E00D9009928150E1F78091710595
:1020A0008287F8012081318180910F059091100580
:1020B00028173907A1F5228133818091110590916C
:1020C00012052817390759F5E0910D05F0910E0515
:1020D0003696EF01DA0186E00D9009928150E1F722
:1020E000EF012696A2EBBCE486E00D9009928150A8
:1020F000E1F788E090E09587848780910D059091C5
:102100000E050E94480580910D0590910E0560D145
:1021100086E0EDE0F5E0DF011D928A95E9F7DF91B9
:10212000CF911F910F91EF90DF90CF900895809104
:10213000B04C9091B14C8A9728F41092B14C109207
:10214000B04C08951092B14C1092B04C67EA7DE407
:102150008091BB4D9091BC4D21E08030920729F0D9
:102160008050924009F094C078C02091CD4D3091BC
:10217000CE4D8091A34D9091A44D2817390759F465
:102180002091CF4D3091D04D8091A54D9091A64D8D
:102190002817390731F08DEC9DE47AD1882309F4B2
:1021A00077C083EC9DE46DEB7DE4D7DE80E092E0C8
:1021B0009093BC4D8093BB4DE7ECFDE4DF011A9793
:1021C00086E00D9001928150E1F7ADEBBDE4E2EBCA
:1021D000FCE486E001900D928150E1F7ADEABDE4A8
:1021E000E2EBFCE486E001900D928150E1F7E7EA32
:1021F000FDE4DF01909686E00D9001928150E1F7B9
:102200002091CD4D3091CE4D4091CF4D5091D04D3C
:102210008091C34D9091C44D9093CE4D8093CD4D00
:102220008091C54D9091C64D9093D04D8093CF4DE8
:102230003093C44D2093C34D5093C64D4093C54D2C
:1022400088E096E09093B44D8093B34D8AE290E09D
:102250009093B14C8093B04C08952091CD4D309126
:10226000CE4D8091A34D9091A44D2817390781F44C
:102270002091CF4D3091D04D8091A54D9091A64D9C
:102280002817390729F4CB014C966A5E7F4F65CE3B
:1022900008951092AA531092A95384E080938A0063
:1022A00090E190937D008AE7809387009093860069
:1022B000789408951F920F920FB60F9211248F9366
:1022C0009F938091A9539091AA5301969093AA53FA
:1022D0008093A953109289001092880010927C007C
:1022E0009F918F910F900FBE0F901F901895209186
:1022F000A9533091AA53C9010895FC0180819181AD
:1023000022813381820F931F9183808308950F93DD
:102310001F938C01ECDF40E050E0F8012081318117
:10232000821B930B228133818217930714F041E0C3
:1023300050E0CA011F910F9108950F931F938C01D4
:10234000FC0173836283D3DFF801918380831F9143
:102350000F910895A0917348B0917448109771F04F
:10236000ED91FC911197309711F013821282F09346
:102370007448E093734811961C921E92CD01089503
:10238000DC01E0917348F09174481196FC93EE9350
:1023900013961C921E921297309711F093838283AA
:1023A00014961C921497B0937448A09373480895A0
:1023B0000F931F9310E006E8109FC00111248D5861
:1023C0009A4FDEDF1F5F1038B9F71F910F91089504
:1023D0000F931F9307C010810181CF01D1DF212FFF
:1023E000302FC901FC010097B1F71F910F9108959B
:1023F0008F929F92AF92BF92CF92DF92EF920F9304
:102400001F93CF93DF934C015B01CC24DD2400E0CC
:1024100010E02CC09FDFEC01009729F4C601D8DF43
:10242000CC24DD2426C0C114D10411F46C0105C0F4
:102430001B830A83F80191838083F0E8AF16B1040F
:1024400018F080E8E82E01C0EA2C0E2D10E09E0165
:102450002A5F3F4FC901B4014E2D50E00E94A702F0
:10246000EC82800E911EA01AB10A8E01A114B10453
:1024700089F6C601DF91CF911F910F91EF90DF9008
:10248000CF90BF90AF909F908F900895089508953A
:10249000FC01808191818150924011F080E008958B
:1024A0000280F381E02DF070EF57F74B80818111AE
:1024B00081E008950F931F93A1EDBDE4B093C64C46
:1024C000A093C54CFD017C97718B608B538B428B25
:1024D00088E0FD0111928A95E9F783E08093D14D60
:1024E0000093D54D1093D64D2093D74D3093D84DB2
:1024F000CD0162E370E00E94B20684E00E94C7064C
:1025000005DC80E090E00E9448051092B14C1092EA
:10251000B04C1F910F9108950F931F93E091C54CFC
:10252000F091C64C92E09083618382831382809104
:10253000754890917648A0917748B0917848848307
:102540009583A683B7830196A11DB11D809375481D
:1025500090937648A0937748B09378483093C24DD3
:102560002093C14D9A01442755273093C44D2093A1
:10257000C34D0E0F1F1F0F591D44CF01B8010E94FC
:10258000B20684E00E94C706C1DB80E090E00E94B2
:1025900048051092B14C1092B04C80E0A9D21F9126
:1025A0000F910895CF93DF936091B04C7091B14C2F
:1025B0005091C44D4091C84DE091C34DF0E0EE0FF5
:1025C000FF1FEE0FFF1FE753FC4A8091C14D909112
:1025D000C24DA091C34DB091C44D80839183A2831D
:1025E000B3832091C54C3091C64CF9013296E90174
:1025F0008C819D81AE81BF8180937C4890937D4882
:10260000A0937E48B0937F488B81809380484A8313
:102610001182528382E8838380E884838981858361
:1026200062507040CF01E4DE40917C4850917D487B
:1026300060917E4870917F481AD2DF91CF910895C2
:102640000F931F931091C54C0091C64C6091C84DDB
:10265000E091C34DF0E0EE0FFF1FEE0FFF1FE753B9
:10266000FC4A8091C14D9091C24DA091C34DB09153
:10267000C44D80839183A283B38380E090E070E0B7
:102680008ED0882399F0E12FF02F96E090838091EF
:1026900028018087118688E1828793878091C54CC5
:1026A0009091C64C6CE070E00E94B2061F910F91B1
:1026B0000895E091C54CF091C64C8081823019F0AC
:1026C000853031F401C06ECF8281883009F4B8CFF3
:1026D0000895E091C74CF091C84C84819581805059
:1026E000974109F42EC4E091BF4CF091C04C868113
:1026F00097818038910529F48091BE4C81FF01C0FB
:10270000D8DFE091BF4CF091C04C86819781805812
:10271000914029F48091BE4C81FF01C0CACF089539
:10272000ADECB3E581E090E0FC01EF57F74B108290
:102730001D921D921D921D9201968F3F9105A1F74A
:102740008FEF8093814880938049809382488FEFF8
:1027500090E0A0E0B0E08093D1559093D255A09343
:10276000D355B093D45581E080937B48E09179486C
:10277000F0917A48309711F01582148280E090E051
:1027800060E870E032DAFC0190937A4880937948EF
:10279000009721F080E890E095838483089581E09C
:1027A00008950F931F938091854961E879E400D1E2
:1027B000833009F048C086E899E46AE271E048E0B5
:1027C00050E00E949A02009751F086E899E463E392
:1027D00071E048E050E00E949A02009751F5BADD9E
:1027E0008C0180918149F801868380918249878399
:1027F0008091B1538087118680E8828781EB83873F
:10280000148682ED858781E08687C8010F966AE28B
:1028100071E00E94B7028EE0F801878BC8014896EC
:102820006CE371E00E94B70280E2F8018483C80182
:10283000FFD080EB60E040E026E839E408E010E0FB
:102840009BD0809385491F910F9108950F931F93FB
:1028500080EB60E040E026E839E408E010E08CD04E
:10286000809385491F910F9108950F931F93DF93D4
:10287000CF9300D000D0CDB7DEB780918E49BE0196
:102880006F5F7F4F95D0833009F05EC08BE491E09D
:102890000E9424048B810E94A6000E943004AB8118
:1028A0008A2F8258823008F03FC0609152017091A7
:1028B000530140E050E0FA01E157F64B208130E04F
:1028C0002F7D3070FB01E40FF51F808190E0281709
:1028D000390751F54F5F5F4F4630510561F72FC003
:1028E000E0919649F0E0EE0FFF1FEE0FFF1FE75358
:1028F000FC4A80819181A281B3810097A105B10535
:1029000099F0198127DDFC01168317821086118644
:1029100080E88287038780912901848781E0858709
:1029200088E08483CF0184D08CE960E040E02FE828
:1029300039E408E010E020D080938E4905C0009172
:102940009549A33869F2DDCF0F900F900F900F904B
:10295000CF91DF911F910F9108950F931F938CE9F1
:1029600060E040E02FE839E408E010E005D0809313
:102970008E491F910F9108950F931F93582FEBE9E4
:10298000FFE590E080819F5F882359F45183638342
:102990004483318720871783068381E08083892FD2
:1029A00004C03A96943071F780E01F910F9108951A
:1029B000982FDB018150843010F090E017C08AE03E
:1029C000989FF0011124EF56F04A9081933071F4F2
:1029D00083818C93848111968C93119782811296B6
:1029E0008C931297858113968C931082892F08956A
:1029F000582FEBE9FFE59F018081813081F48181CF
:102A0000851711F0882359F49381992319F484814F
:102A1000882361F0961719F48481841739F03A9667
:102A20008FE5E33CF80739F720E030E0C90108956D
:102A3000AC01E3ECFFE520E080819181892B39F046
:102A40002F5F3D962830C1F72FEF3FEF0EC0EDE02E
:102A50002E9FF0011124ED53F04A80E1828313820E
:102A60005183408330E02F5F3F4FC9010895DC015F
:102A7000E3ECFFE520E080819181892B39F02F5F25
:102A80003D962830C1F72FEF3FEF0EC0EDE02E9FAF
:102A9000F0011124ED53F04A80E182831382B18367
:102AA000A08330E02F5F3F4F8DE090E0289FF00142
:102AB000299FF00D389FF00D1124EA54F04A81E06F
:102AC00084834187528763877487C9010895809101
:102AD000CD578093B3498091CE578093B44980916C
:102AE000CB578093B5498091CC578093B6490895D0
:102AF000882349F4ECDF88E08093B1498DEA99E4BA
:102B000061E00E940E0180E00C941602BF92CF9209
:102B1000DF92EF920F931F93CF93DF93FF2009F083
:102B200098C0C3ECDFE5A0E8DA2EF6E0EF2EE881EE
:102B3000F981309709F486C08B81882309F080C021
:102B400086818F3F11F401E006C08385882311F44C
:102B500002E001C000E084E591E00E942404802F9F
:102B60000E94A60080919D4990919E490196909364
:102B70009E4980939D490E940501882359F08091C8
:102B8000A5499091A64901969093A6498093A5499D
:102B900091E043C0013049F48881998161E00E944D
:102BA0000E0180E00E94160234C0888199810230B3
:102BB00069F0A3EBB9E4FC01369686E001900D9232
:102BC0008150E1F7E092B1498DEA99E461E00E9419
:102BD0000E010E944902182F882319F08F31C9F77E
:102BE00056C18EE40E947D0092E059C1888199818E
:102BF00060E00E940E010E944902182F882311F004
:102C00008F33C9F780E00E9416021F701F3009F051
:102C100045C190E002C0DB8215C08C81882351F051
:102C20006D817E814F81588509851A852B853C856C
:102C3000892F40DC88819981CBDB1982188202C000
:102C400081508B832D9680E6CB32D80709F06FCF69
:102C50002DC18F2D8F708F3009F028C183E70E941E
:102C60007D000091D2021091D3020B5C1745809138
:102C700097499091984901969093984980939749E4
:102C80008FE0F81609F0DAC00630110550F4809193
:102C9000994990919A49019690939A4980939949BC
:102CA000F2C0C091CB57D091CC57D090CF57E09085
:102CB000D057C090CD57B090CE57CF3F09F03DC010
:102CC00080919B4990919C49019690939C49809357
:102CD0009B498E2D6C2D4B2D8BDEEC010097A9F0BE
:102CE000F80136978E819F818E179F0770F021ED36
:102CF00037E588859985B901AF010E94A702CB828B
:102D0000BC82DA82ED8283E088838CE9E81609F4DC
:102D1000BAC0045010402091C54C3091C64C285F79
:102D20003F4F4FEC57E5C901BA01A8010E94A70225
:102D30008D2D6E2DA801ABDBA6C00D2F1127F8013C
:102D4000EE0FFF1FEE0FFF1FE753FC4A208131817A
:102D500042815381211531054105510519F1CE01FB
:102D6000A0E0B0E0B82FAA2799278827822B932BC1
:102D7000A42BB52B8093A7499093A849A093A94968
:102D8000B093AA4982E40E947D00D092AB49E092C0
:102D9000AC49C092B349B092B449C093B5490093CD
:102DA000B64942C080912B6090912C60882309F431
:102DB0006AC0C817D90709F066C08CE40E947D007C
:102DC000EE20D1F48FE7D82288E0D81609F05BC056
:102DD0007EDE80E58093B7498093B84981E0809397
:102DE000B9491092BA4988E08093B1498DEA99E4D3
:102DF00061E00E940E0147C08E2D6C2D4B2DF8DD39
:102E0000FC019093CA578093C9570097E1F182E083
:102E10008083E091C957F091CA57D282E091C95797
:102E2000F091CA57E58253DE84E08093B1498DEA80
:102E300099E461E00E940E0180E226C08FE2F8165C
:102E4000E9F4045010402091C54C3091C64C285FE5
:102E50003F4F4FEC57E5C901BA01A8010E94A702F4
:102E60002091A7493091A8494091A9495091AA4978
:102E70008091AB496091AC494FDB05C08F2D0E941A
:102E8000A6000E94300480E00E9416020FC083E575
:102E90000E947D00002309F0B5CEA8CE93E08A8180
:102EA00081508A838F5F09F0B6CEB7CEDF91CF9184
:102EB0001F910F91EF90DF90CF90BF90089586E023
:102EC00080931F4A0895BC011092CA491092C949C3
:102ED000A5EDB9E4E0E0F0E013C08D919D919F0174
:102EE0002F5F3F4F892B59F4F093CA49E093C949AA
:102EF000EE0FFF1FEB52F64B718360830895F901CB
:102F0000E031F10550F3F093CA49E093C949709755
:102F100019F488E591E046C308950F931F93182F85
:102F2000062F88E591E010D3FC01009739F08FEF70
:102F30008083118302831382CF01C5DF1F910F911C
:102F40000895AF92BF92CF92DF92EF920F931F93AB
:102F5000CF93DF938091BE4C86FF14C0E5EDF9E47A
:102F600080E090E003C011921192019680319105AA
:102F7000D0F39093C4498093C34910921D4A109294
:102F80001F4AAAD280911F4A863031F410921F4AFC
:102F900080E18093BE4C6DC19091BE4C892F8073AF
:102FA00011F497FF21C01092C6491092C54915C06F
:102FB000EE0FFF1FEB52F64B6081718161157105B9
:102FC00019F088E591E0EED28091C5499091C6490B
:102FD00001969093C6498093C549E091C549F09107
:102FE000C649E031F10520F38091BE4C80FD28C038
:102FF0002DC06091D5497091D64988E591E0D2D233
:10300000D093C849C093C749E5EDF9E421E030E029
:1030100006C082819381819391932F5F3F4F20312E
:103020003105B8F33093C8492093C7491092F44949
:103030001092F34980911E4A815080931E4A02C02B
:10304000C1E0D0E080911E4A882399F68091BE4C61
:1030500081FF88C00091B04C1091B14CC091C54C1B
:10306000D091C64CAA24A39453E0B52E44E0D42EAC
:1030700035E0C32E22E0E22E6DC0688180911F4AA8
:103080008230E9F1833038F4882309F43FC081307D
:1030900009F05DC008C08430A1F1843080F1853032
:1030A00009F055C02EC06F3F91F4E92FF0E0EB52CC
:1030B000F64B60A3973239F410A285EF99E41ED243
:1030C00010921D4A20C09F5F90931D4A1CC06C3F08
:1030D00069F06D3F18F46B3FB1F405C06D3F49F0E6
:1030E0006E3F89F409C0E0921F4A31C0B0921F4A76
:1030F0002EC0D0921F4A2BC0C0921F4A28C08EEF0C
:1031000001C08CEF0ADF10921F4A21C06F3F19F4F3
:10311000A0921F4A1CC06D30D1F0A92FB0E0FD0174
:10312000EB52F64B60A36A3019F0973269F402C093
:10313000992321F0AB52B64B90961C9285EF99E4FF
:10314000DDD110921D4A03C09F5F90931D4A2196C6
:10315000015010400115110529F090911D4A983237
:1031600008F48BCF8091BE4C282F30E082FD0AC03E
:10317000C90183709070892B29F428743070232B37
:1031800009F477C08091C54C9091C64C9093D24978
:103190008093D1491092CE491092CD4910921E4A87
:1031A000C8E2D0E04DC05093D0494093CF49FA01D6
:1031B00001900020E9F73197E41BF50BF093CC491F
:1031C000E093CB49B99724F0D093CC49C093CB4935
:1031D000A091CB49B091CC498091CD499091CE49F5
:1031E0008A0F9B1FE091C74CF091C84C228933890C
:1031F00082179307A0F58091D1499091D249BA01E5
:10320000AD010E94A7022091CB493091CC49809119
:10321000D1499091D249820F931F9093D2498093C4
:10322000D1498091CD499091CE49820F931F9093BF
:10323000CE498093CD4980911E4A8F5F80931E4A6C
:10324000E0911E4AE03158F4F0E0EE0FFF1FEB5220
:10325000F64B408151814115510509F0A4CF609191
:10326000CD497091CE498091C54C9091C64C0E9439
:10327000B206DF91CF911F910F91EF90DF90CF9029
:10328000BF90AF90089580E097E10E947A0688E5AC
:1032900091E0B6D189C0CF92DF920F931F93CF9365
:1032A000DF93182F092F6B0188E591E04DD1EC01D8
:1032B0000097D9F1A12FB02FFD0101900020E9F76F
:1032C0003197EA1BFB0BF093D449E093D349612F6C
:1032D000702F48E250E00E94CC028091D349909137
:1032E000D4498832910548F448E250E0481B590B14
:1032F0008C0F9D1FB6010E94CC02DE010D900020B4
:10330000E9F71197AC1BBD0BB093D449A093D349F7
:10331000A632B10540F4FE01EA0FFB1F8DE0808369
:103320008AE081831282CE01CEDDDF91CF911F91A1
:103330000F91DF90CF9008950F931F93CF93DF935A
:103340008C0188E591E000D1EC01009739F0B801DB
:1033500048E250E00E94CC02CE01B5DDDF91CF9172
:103360001F910F910895FC01262F862F64E66BD1E3
:10337000805D8083803311F480E28083822F6AE055
:1033800062D161D1905D91838081803219F4903354
:1033900009F48183822F6AE056D1905D928380E2A6
:1033A00083831482089508950895FC018081882301
:1033B00021F080E691E0BF016ECF08950F931F9337
:1033C000DF93CF93CDB7DEB762970FB6F894DEBF29
:1033D0000FBECDBFAFEBB3E5FE0136962C91822F29
:1033E00082958F708A3010F4805D01C0895A808385
:1033F000822F90E08F7090702F700A971CF4822FAC
:10340000805D02C0822F895A81831196329683E5AE
:10341000A53CB80719F71A8A8E010F5F1F4FC80124
:103420006091B053A0DF82E791E0B80134DFC801BA
:103430006091B15398DF8DE891E0B8012CDFC801AD
:103440006091AF5390DF89E991E0B80124DF85EA0C
:1034500091E06AEB71E01FDF8BEB91E0BE016A5FE8
:103460007F4F19DF8AEC91E0B80115DF88ED91E01C
:10347000B80111DF83EE91E0B8010DDFC801609162
:10348000B25371DF8FEE91E0B80105DF62960FB69F
:10349000F894DEBF0FBECDBFCF91DF911F910F918A
:1034A00008950F931F930AEB11E08EEF91E0B8019E
:1034B000F2DE80E292E0B801EEDE8FE392E0B80146
:1034C000EADE8CE592E0B801E6DE80E792E0B80142
:1034D000E2DE1F910F9108950F931F930AEB11E005
:1034E00085E892E0B801D7DE81E992E0B801D3DE49
:1034F0008EE992E021DF1F910F9108950F931F93A2
:10350000CF93DF938C01CAEBD2E00EC0DC010D90AB
:103510000020E9F71197A81BB90BB801AD010E9473
:10352000BE02009729F0249688819981009771F74F
:10353000EA81FB81C80109958EE992E0FDDEDF9109
:10354000CF911F910F910895DC0112964D915C91DE
:10355000139720E030E01FC01496ED91FC91159771
:10356000E20FF31F80818823A1F481E080838D9195
:103570009C911197AC01249FC001259F900D349F11
:10358000900D112416962D913C911797280F391FF5
:1035900007C02F5F3F4F24173507F0F220E030E0DF
:1035A000C9010895DC0116962D913C91179712964A
:1035B000ED91FC91139740E050E01DC026173707AE
:1035C00099F41496ED91FC911597E40FF51F808105
:1035D000882311F0815080831496ED91FC9115970A
:1035E000E40FF51F808108958D919C911197280F0C
:1035F000391F4F5F5F4F4E175F0700F38FEF08953E
:103600000F931F938C01FC0142815381848195812A
:1036100060E070E00E94B002F80122813381808175
:103620009181A901489F9001499F300D589F300D0D
:1036300011248681978160E070E0A9010E94B002A8
:103640001F910F910895991B79E004C0991F961757
:1036500008F0961B881F7A95C9F780950895F8940D
:02366000FFCF9A
:103662000D0A0065636F200065746820007478207D
:1036720000727820006520006F6B200000000000BF
:10368200FFFFFFFFFFFFFFFF0701494E5445524E68
:103692004554002020202020202020005443502F79
:1036A2004950204761746577617900425249444725
:1036B20045004B017478200028001000204A304A4F
:1036C200556E6B6E6F776E20636F6D6D616E643ACF
:1036D200200045636F6E65740A3D3D3D3D3D3D0AE8
:1036E2000A4E6574776F726B09093A200053746150
:1036F20074696F6E09093A2000436C6F636B20781E
:1037020009093A20000A45746865726E65740A3DBB
:103712003D3D3D3D3D3D3D0A0A00004D41432041B6
:10372200646472657373093A2000495020416464ED
:1037320072657373093A20005375626E65740909E4
:103742003A20004761746577617909093A2000419E
:10375200554E204E6574776F726B093A2000737470
:103762006174732020202D2073686F77206E65743A
:10377200776F726B20737461746973746963730019
:10378200636F6E6E202020202D2073686F77205487
:10379200435020636F6E6E656374696F6E7300636E
:1037A2006F6E66696720202D2073686F7720636FC4
:1037B2006E66696775726174696F6E0068656C70B8
:1037C2002C203F202D2073686F772068656C700075
:1037D20065786974202020202D2065786974207313
:1037E20068656C6C00424545204761746577617974
:1037F20000273F2720666F722068656C70003E20AC
:1038020000737461747300636F6E6E00636F6E6633
:1038120069670065786974003F00A102D319A702A5
:10382200511AAC02DE19B3025F17B802511A000036
:04383200D5190000A4
:00000001FF
